{
  "transactions": [
    {
      "hash": "0x5cf069ef23a0a0e25287b8063097bb3d6db5a53bb84d8617b24675399d159b94",
      "transactionType": "CREATE",
      "contractName": "PureSuperTokenProxy",
      "contractAddress": "0x8caa1b86c6aa7b4c8b733515ad1a9a2ecf8a9887",
      "function": null,
      "arguments": null,
      "transaction": {
        "from": "0x97a1f968762b1d12c394e62aaa480998518a3744",
        "gas": "0x6e30b",
        "value": "0x0",
        "input": "0x6080604052348015600f57600080fd5b506105538061001f6000396000f3fe60806040526004361061002d5760003560e01c80634a0687ef1461004457806375b30be6146100645761003c565b3661003c5761003a610084565b005b61003a610084565b34801561005057600080fd5b5061003a61005f36600461032e565b610096565b34801561007057600080fd5b5061003a61007f3660046103f7565b61019c565b61009461008f6102c6565b6102f5565b565b6001600160a01b0381166100f15760405162461bcd60e51b815260206004820152601760248201527f5555505350726f78793a207a65726f206164647265737300000000000000000060448201526064015b60405180910390fd5b600061011b7f360894a13ba1a3210667c828492db98dca3e2076cc3735a920a3ca505d382bbc5490565b6001600160a01b0316146101715760405162461bcd60e51b815260206004820152601e60248201527f5555505350726f78793a20616c726561647920696e697469616c697a6564000060448201526064016100e8565b610199817f360894a13ba1a3210667c828492db98dca3e2076cc3735a920a3ca505d382bbc55565b50565b604051633504b4d160e21b81523060048201526001600160a01b0386169063d412d34490602401600060405180830381600087803b1580156101dd57600080fd5b505af11580156101f1573d6000803e3d6000fd5b50506040516285fc1360e71b81523092506342fe0980915061021f90600090601290899089906004016104d3565b600060405180830381600087803b15801561023957600080fd5b505af115801561024d573d6000803e3d6000fd5b505060405163c68d428360e01b81526001600160a01b038516600482015260248101849052606060448201526000606482015230925063c68d42839150608401600060405180830381600087803b1580156102a757600080fd5b505af11580156102bb573d6000803e3d6000fd5b505050505050505050565b60006102f07f360894a13ba1a3210667c828492db98dca3e2076cc3735a920a3ca505d382bbc5490565b905090565b3660008037600080366000845af43d6000803e808015610314573d6000f35b3d6000fd5b6001600160a01b038116811461019957600080fd5b60006020828403121561034057600080fd5b813561034b81610319565b9392505050565b634e487b7160e01b600052604160045260246000fd5b600082601f83011261037957600080fd5b813567ffffffffffffffff81111561039357610393610352565b604051601f8201601f19908116603f0116810167ffffffffffffffff811182821017156103c2576103c2610352565b6040528181528382016020018510156103da57600080fd5b816020850160208301376000918101602001919091529392505050565b600080600080600060a0868803121561040f57600080fd5b853561041a81610319565b9450602086013567ffffffffffffffff81111561043657600080fd5b61044288828901610368565b945050604086013567ffffffffffffffff81111561045f57600080fd5b61046b88828901610368565b935050606086013561047c81610319565b949793965091946080013592915050565b6000815180845260005b818110156104b357602081850181015186830182015201610497565b506000602082860101526020601f19601f83011685010191505092915050565b6001600160a01b038516815260ff841660208201526080604082018190526000906105009083018561048d565b8281036060840152610512818561048d565b97965050505050505056fea26469706673582212207eac39412d547efb24928f660e6922996dc955e3e56fff7cd593fcf2e031601664736f6c634300081a0033",
        "nonce": "0x9b",
        "chainId": "0xaa36a7"
      },
      "additionalContracts": [],
      "isFixedGasLimit": false
    },
    {
      "hash": "0x29da73dffc92808cd08d03e9d5459f00c6eb5fcc077a97cca8a477f4b3015984",
      "transactionType": "CALL",
      "contractName": "PureSuperTokenProxy",
      "contractAddress": "0x8caa1b86c6aa7b4c8b733515ad1a9a2ecf8a9887",
      "function": "initialize(address,string,string,address,uint256)",
      "arguments": [
        "0x254C2e152E8602839D288A7bccdf3d0974597193",
        "\"Test Aave\"",
        "\"AAVE\"",
        "0x97A1F968762B1D12c394e62AAA480998518a3744",
        "1000000000000000000000000000"
      ],
      "transaction": {
        "from": "0x97a1f968762b1d12c394e62aaa480998518a3744",
        "to": "0x8caa1b86c6aa7b4c8b733515ad1a9a2ecf8a9887",
        "gas": "0x59c1b",
        "value": "0x0",
        "input": "0x75b30be6000000000000000000000000254c2e152e8602839d288a7bccdf3d097459719300000000000000000000000000000000000000000000000000000000000000a000000000000000000000000000000000000000000000000000000000000000e000000000000000000000000097a1f968762b1d12c394e62aaa480998518a37440000000000000000000000000000000000000000033b2e3c9fd0803ce80000000000000000000000000000000000000000000000000000000000000000000009546573742041617665000000000000000000000000000000000000000000000000000000000000000000000000000000000000000000000000000000000000044141564500000000000000000000000000000000000000000000000000000000",
        "nonce": "0x9c",
        "chainId": "0xaa36a7"
      },
      "additionalContracts": [],
      "isFixedGasLimit": false
    }
  ],
  "receipts": [
    {
      "status": "0x1",
      "cumulativeGasUsed": "0xd29405",
      "logs": [],
      "logsBloom": "0x00000000000000000000000000000000000000000000000000000000000000000000000000000000000000000000000000000000000000000000000000000000000000000000000000000000000000000000000000000000000000000000000000000000000000000000000000000000000000000000000000000000000000000000000000000000000000000000000000000000000000000000000000000000000000000000000000000000000000000000000000000000000000000000000000000000000000000000000000000000000000000000000000000000000000000000000000000000000000000000000000000000000000000000000000000000",
      "type": "0x2",
      "transactionHash": "0x5cf069ef23a0a0e25287b8063097bb3d6db5a53bb84d8617b24675399d159b94",
      "transactionIndex": "0x61",
      "blockHash": "0xa53558dfbda4f24c51d22ae3ce86132617c93cd19be2a5b9eb41eb1774d3140c",
      "blockNumber": "0x7746d2",
      "gasUsed": "0x54c88",
      "effectiveGasPrice": "0x14a59e9053",
      "from": "0x97a1f968762b1d12c394e62aaa480998518a3744",
      "to": null,
      "contractAddress": "0x8caa1b86c6aa7b4c8b733515ad1a9a2ecf8a9887"
    },
    {
      "status": "0x1",
      "cumulativeGasUsed": "0xe90743",
      "logs": [
        {
          "address": "0x254c2e152e8602839d288a7bccdf3d0974597193",
          "topics": [
            "0x437790724a6e97b75d23117f28cdd4b1beeafc34f7a0911ef256e9334f4369a5",
            "0x0000000000000000000000008caa1b86c6aa7b4c8b733515ad1a9a2ecf8a9887"
          ],
          "data": "0x",
          "blockHash": "0x9bd3c51a4b8d215fcc807ddfab5e56dd258463a00d9cdba17e66326a300c89e3",
          "blockNumber": "0x7746d3",
          "transactionHash": "0x29da73dffc92808cd08d03e9d5459f00c6eb5fcc077a97cca8a477f4b3015984",
          "transactionIndex": "0x84",
          "logIndex": "0xb7",
          "removed": false
        },
        {
          "address": "0x1820a4b7618bde71dce8cdc73aab6c95905fad24",
          "topics": [
            "0x93baa6efbd2244243bfee6ce4cfdd1d04fc4c0e9a786abd3a41313bd352db153",
            "0x0000000000000000000000008caa1b86c6aa7b4c8b733515ad1a9a2ecf8a9887",
            "0xac7fbab5f54a3ca8194167523c6753bfeb96a445279294b6125b68cce2177054",
            "0x0000000000000000000000008caa1b86c6aa7b4c8b733515ad1a9a2ecf8a9887"
          ],
          "data": "0x",
          "blockHash": "0x9bd3c51a4b8d215fcc807ddfab5e56dd258463a00d9cdba17e66326a300c89e3",
          "blockNumber": "0x7746d3",
          "transactionHash": "0x29da73dffc92808cd08d03e9d5459f00c6eb5fcc077a97cca8a477f4b3015984",
          "transactionIndex": "0x84",
          "logIndex": "0xb8",
          "removed": false
        },
        {
          "address": "0x1820a4b7618bde71dce8cdc73aab6c95905fad24",
          "topics": [
            "0x93baa6efbd2244243bfee6ce4cfdd1d04fc4c0e9a786abd3a41313bd352db153",
            "0x0000000000000000000000008caa1b86c6aa7b4c8b733515ad1a9a2ecf8a9887",
            "0xaea199e31a596269b42cdafd93407f14436db6e4cad65417994c2eb37381e05a",
            "0x0000000000000000000000008caa1b86c6aa7b4c8b733515ad1a9a2ecf8a9887"
          ],
          "data": "0x",
          "blockHash": "0x9bd3c51a4b8d215fcc807ddfab5e56dd258463a00d9cdba17e66326a300c89e3",
          "blockNumber": "0x7746d3",
          "transactionHash": "0x29da73dffc92808cd08d03e9d5459f00c6eb5fcc077a97cca8a477f4b3015984",
          "transactionIndex": "0x84",
          "logIndex": "0xb9",
          "removed": false
        },
        {
          "address": "0x8caa1b86c6aa7b4c8b733515ad1a9a2ecf8a9887",
          "topics": [
            "0xddf252ad1be2c89b69c2b068fc378daa952ba7f163c4a11628f55a4df523b3ef",
            "0x0000000000000000000000000000000000000000000000000000000000000000",
            "0x0000000000000000000000000000000000000000000000000000000000000000"
          ],
          "data": "0x0000000000000000000000000000000000000000000000000000000000000000",
          "blockHash": "0x9bd3c51a4b8d215fcc807ddfab5e56dd258463a00d9cdba17e66326a300c89e3",
          "blockNumber": "0x7746d3",
          "transactionHash": "0x29da73dffc92808cd08d03e9d5459f00c6eb5fcc077a97cca8a477f4b3015984",
          "transactionIndex": "0x84",
          "logIndex": "0xba",
          "removed": false
        },
        {
          "address": "0x8caa1b86c6aa7b4c8b733515ad1a9a2ecf8a9887",
          "topics": [
            "0x7e644d79422f17c01e4894b5f4f588d331ebfa28653d42ae832dc59e38c9798f",
            "0x0000000000000000000000000000000000000000000000000000000000000000",
            "0x0000000000000000000000000000000000000000000000000000000000000000"
          ],
          "data": "0x",
          "blockHash": "0x9bd3c51a4b8d215fcc807ddfab5e56dd258463a00d9cdba17e66326a300c89e3",
          "blockNumber": "0x7746d3",
          "transactionHash": "0x29da73dffc92808cd08d03e9d5459f00c6eb5fcc077a97cca8a477f4b3015984",
          "transactionIndex": "0x84",
          "logIndex": "0xbb",
          "removed": false
        },
        {
          "address": "0x8caa1b86c6aa7b4c8b733515ad1a9a2ecf8a9887",
          "topics": [
            "0x7f26b83ff96e1f2b6a682f133852f6798a09c465da95921460cefb3847402498"
          ],
          "data": "0x0000000000000000000000000000000000000000000000000000000000000001",
          "blockHash": "0x9bd3c51a4b8d215fcc807ddfab5e56dd258463a00d9cdba17e66326a300c89e3",
          "blockNumber": "0x7746d3",
          "transactionHash": "0x29da73dffc92808cd08d03e9d5459f00c6eb5fcc077a97cca8a477f4b3015984",
          "transactionIndex": "0x84",
          "logIndex": "0xbc",
          "removed": false
        },
        {
          "address": "0x8caa1b86c6aa7b4c8b733515ad1a9a2ecf8a9887",
          "topics": [
            "0x2fe5be0146f74c5bce36c0b80911af6c7d86ff27e89d5cfa61fc681327954e5d",
            "0x0000000000000000000000008caa1b86c6aa7b4c8b733515ad1a9a2ecf8a9887",
            "0x00000000000000000000000097a1f968762b1d12c394e62aaa480998518a3744"
          ],
          "data": "0x0000000000000000000000000000000000000000033b2e3c9fd0803ce80000000000000000000000000000000000000000000000000000000000000000000060000000000000000000000000000000000000000000000000000000000000008000000000000000000000000000000000000000000000000000000000000000000000000000000000000000000000000000000000000000000000000000000000",
          "blockHash": "0x9bd3c51a4b8d215fcc807ddfab5e56dd258463a00d9cdba17e66326a300c89e3",
          "blockNumber": "0x7746d3",
          "transactionHash": "0x29da73dffc92808cd08d03e9d5459f00c6eb5fcc077a97cca8a477f4b3015984",
          "transactionIndex": "0x84",
          "logIndex": "0xbd",
          "removed": false
        },
        {
          "address": "0x8caa1b86c6aa7b4c8b733515ad1a9a2ecf8a9887",
          "topics": [
            "0xddf252ad1be2c89b69c2b068fc378daa952ba7f163c4a11628f55a4df523b3ef",
            "0x0000000000000000000000000000000000000000000000000000000000000000",
            "0x00000000000000000000000097a1f968762b1d12c394e62aaa480998518a3744"
          ],
          "data": "0x0000000000000000000000000000000000000000033b2e3c9fd0803ce8000000",
          "blockHash": "0x9bd3c51a4b8d215fcc807ddfab5e56dd258463a00d9cdba17e66326a300c89e3",
          "blockNumber": "0x7746d3",
          "transactionHash": "0x29da73dffc92808cd08d03e9d5459f00c6eb5fcc077a97cca8a477f4b3015984",
          "transactionIndex": "0x84",
          "logIndex": "0xbe",
          "removed": false
        }
      ],
      "logsBloom": "0x00000000020000200000000000200000000000000000000000000000000000001040000000000000400000000080000000000000000000000000000000001000000000000000000000000008000000000000100000000000000000000000000000004100020400000000020000000800000010800020000000000010000000010000040000000000000000000000080000000000000080000080000000800000000000000020000000002000000400000000000000000000200800000000000000000002000000800020000000040002000000000410000000000000000020000000010000000000000000000800000002000000000000000000000000000000",
      "type": "0x2",
      "transactionHash": "0x29da73dffc92808cd08d03e9d5459f00c6eb5fcc077a97cca8a477f4b3015984",
      "transactionIndex": "0x84",
      "blockHash": "0x9bd3c51a4b8d215fcc807ddfab5e56dd258463a00d9cdba17e66326a300c89e3",
      "blockNumber": "0x7746d3",
      "gasUsed": "0x40fb8",
      "effectiveGasPrice": "0x149f86dee4",
      "from": "0x97a1f968762b1d12c394e62aaa480998518a3744",
      "to": "0x8caa1b86c6aa7b4c8b733515ad1a9a2ecf8a9887",
      "contractAddress": null
    }
  ],
  "libraries": [],
  "pending": [],
  "returns": {},
  "timestamp": 1740915457,
  "chain": 11155111,
  "commit": "4195dd4"
}