{
  "transactions": [
    {
      "hash": "0x3b1ec3a128eb131e42fea68b3c73bccc5b4989e77eef96506b53a43a0b8e2963",
      "transactionType": "CREATE",
      "contractName": "PureSuperTokenProxy",
      "contractAddress": "0xc0341325a034516c4146ef496a768de1850d09f5",
      "function": null,
      "arguments": null,
      "transaction": {
        "from": "0x97a1f968762b1d12c394e62aaa480998518a3744",
        "gas": "0x6e30b",
        "value": "0x0",
        "input": "0x6080604052348015600f57600080fd5b506105538061001f6000396000f3fe60806040526004361061002d5760003560e01c80634a0687ef1461004457806375b30be6146100645761003c565b3661003c5761003a610084565b005b61003a610084565b34801561005057600080fd5b5061003a61005f36600461032e565b610096565b34801561007057600080fd5b5061003a61007f3660046103f7565b61019c565b61009461008f6102c6565b6102f5565b565b6001600160a01b0381166100f15760405162461bcd60e51b815260206004820152601760248201527f5555505350726f78793a207a65726f206164647265737300000000000000000060448201526064015b60405180910390fd5b600061011b7f360894a13ba1a3210667c828492db98dca3e2076cc3735a920a3ca505d382bbc5490565b6001600160a01b0316146101715760405162461bcd60e51b815260206004820152601e60248201527f5555505350726f78793a20616c726561647920696e697469616c697a6564000060448201526064016100e8565b610199817f360894a13ba1a3210667c828492db98dca3e2076cc3735a920a3ca505d382bbc55565b50565b604051633504b4d160e21b81523060048201526001600160a01b0386169063d412d34490602401600060405180830381600087803b1580156101dd57600080fd5b505af11580156101f1573d6000803e3d6000fd5b50506040516285fc1360e71b81523092506342fe0980915061021f90600090601290899089906004016104d3565b600060405180830381600087803b15801561023957600080fd5b505af115801561024d573d6000803e3d6000fd5b505060405163c68d428360e01b81526001600160a01b038516600482015260248101849052606060448201526000606482015230925063c68d42839150608401600060405180830381600087803b1580156102a757600080fd5b505af11580156102bb573d6000803e3d6000fd5b505050505050505050565b60006102f07f360894a13ba1a3210667c828492db98dca3e2076cc3735a920a3ca505d382bbc5490565b905090565b3660008037600080366000845af43d6000803e808015610314573d6000f35b3d6000fd5b6001600160a01b038116811461019957600080fd5b60006020828403121561034057600080fd5b813561034b81610319565b9392505050565b634e487b7160e01b600052604160045260246000fd5b600082601f83011261037957600080fd5b813567ffffffffffffffff81111561039357610393610352565b604051601f8201601f19908116603f0116810167ffffffffffffffff811182821017156103c2576103c2610352565b6040528181528382016020018510156103da57600080fd5b816020850160208301376000918101602001919091529392505050565b600080600080600060a0868803121561040f57600080fd5b853561041a81610319565b9450602086013567ffffffffffffffff81111561043657600080fd5b61044288828901610368565b945050604086013567ffffffffffffffff81111561045f57600080fd5b61046b88828901610368565b935050606086013561047c81610319565b949793965091946080013592915050565b6000815180845260005b818110156104b357602081850181015186830182015201610497565b506000602082860101526020601f19601f83011685010191505092915050565b6001600160a01b038516815260ff841660208201526080604082018190526000906105009083018561048d565b8281036060840152610512818561048d565b97965050505050505056fea26469706673582212207eac39412d547efb24928f660e6922996dc955e3e56fff7cd593fcf2e031601664736f6c634300081a0033",
        "nonce": "0x97",
        "chainId": "0xaa36a7"
      },
      "additionalContracts": [],
      "isFixedGasLimit": false
    },
    {
      "hash": "0xc2e47c3d154e1b6d30b9ddc9e36f37c857b6c7fcc53923650500ecc75187072a",
      "transactionType": "CALL",
      "contractName": "PureSuperTokenProxy",
      "contractAddress": "0xc0341325a034516c4146ef496a768de1850d09f5",
      "function": "initialize(address,string,string,address,uint256)",
      "arguments": [
        "0x254C2e152E8602839D288A7bccdf3d0974597193",
        "\"Test Ethereum\"",
        "\"ETH\"",
        "0x97A1F968762B1D12c394e62AAA480998518a3744",
        "1000000000000000000000000"
      ],
      "transaction": {
        "from": "0x97a1f968762b1d12c394e62aaa480998518a3744",
        "to": "0xc0341325a034516c4146ef496a768de1850d09f5",
        "gas": "0x59c2c",
        "value": "0x0",
        "input": "0x75b30be6000000000000000000000000254c2e152e8602839d288a7bccdf3d097459719300000000000000000000000000000000000000000000000000000000000000a000000000000000000000000000000000000000000000000000000000000000e000000000000000000000000097a1f968762b1d12c394e62aaa480998518a374400000000000000000000000000000000000000000000d3c21bcecceda1000000000000000000000000000000000000000000000000000000000000000000000d5465737420457468657265756d0000000000000000000000000000000000000000000000000000000000000000000000000000000000000000000000000000034554480000000000000000000000000000000000000000000000000000000000",
        "nonce": "0x98",
        "chainId": "0xaa36a7"
      },
      "additionalContracts": [],
      "isFixedGasLimit": false
    }
  ],
  "receipts": [
    {
      "status": "0x1",
      "cumulativeGasUsed": "0x1256499",
      "logs": [],
      "logsBloom": "0x00000000000000000000000000000000000000000000000000000000000000000000000000000000000000000000000000000000000000000000000000000000000000000000000000000000000000000000000000000000000000000000000000000000000000000000000000000000000000000000000000000000000000000000000000000000000000000000000000000000000000000000000000000000000000000000000000000000000000000000000000000000000000000000000000000000000000000000000000000000000000000000000000000000000000000000000000000000000000000000000000000000000000000000000000000000",
      "type": "0x2",
      "transactionHash": "0x3b1ec3a128eb131e42fea68b3c73bccc5b4989e77eef96506b53a43a0b8e2963",
      "transactionIndex": "0x94",
      "blockHash": "0x9a4966db206ce19c2bf3c54a157cba03fe385a9f365ae2dc4d63f6cb5c123bd9",
      "blockNumber": "0x7746c3",
      "gasUsed": "0x54c88",
      "effectiveGasPrice": "0x10447e2ace",
      "from": "0x97a1f968762b1d12c394e62aaa480998518a3744",
      "to": null,
      "contractAddress": "0xc0341325a034516c4146ef496a768de1850d09f5"
    },
    {
      "status": "0x1",
      "cumulativeGasUsed": "0x113999c",
      "logs": [
        {
          "address": "0x254c2e152e8602839d288a7bccdf3d0974597193",
          "topics": [
            "0x437790724a6e97b75d23117f28cdd4b1beeafc34f7a0911ef256e9334f4369a5",
            "0x000000000000000000000000c0341325a034516c4146ef496a768de1850d09f5"
          ],
          "data": "0x",
          "blockHash": "0xfc2b358cd751be04a6d9bc95216f0ed1d0ac30fc2a3c9f6f76ebe1d4f65eea10",
          "blockNumber": "0x7746c5",
          "transactionHash": "0xc2e47c3d154e1b6d30b9ddc9e36f37c857b6c7fcc53923650500ecc75187072a",
          "transactionIndex": "0xae",
          "logIndex": "0xc7",
          "removed": false
        },
        {
          "address": "0x1820a4b7618bde71dce8cdc73aab6c95905fad24",
          "topics": [
            "0x93baa6efbd2244243bfee6ce4cfdd1d04fc4c0e9a786abd3a41313bd352db153",
            "0x000000000000000000000000c0341325a034516c4146ef496a768de1850d09f5",
            "0xac7fbab5f54a3ca8194167523c6753bfeb96a445279294b6125b68cce2177054",
            "0x000000000000000000000000c0341325a034516c4146ef496a768de1850d09f5"
          ],
          "data": "0x",
          "blockHash": "0xfc2b358cd751be04a6d9bc95216f0ed1d0ac30fc2a3c9f6f76ebe1d4f65eea10",
          "blockNumber": "0x7746c5",
          "transactionHash": "0xc2e47c3d154e1b6d30b9ddc9e36f37c857b6c7fcc53923650500ecc75187072a",
          "transactionIndex": "0xae",
          "logIndex": "0xc8",
          "removed": false
        },
        {
          "address": "0x1820a4b7618bde71dce8cdc73aab6c95905fad24",
          "topics": [
            "0x93baa6efbd2244243bfee6ce4cfdd1d04fc4c0e9a786abd3a41313bd352db153",
            "0x000000000000000000000000c0341325a034516c4146ef496a768de1850d09f5",
            "0xaea199e31a596269b42cdafd93407f14436db6e4cad65417994c2eb37381e05a",
            "0x000000000000000000000000c0341325a034516c4146ef496a768de1850d09f5"
          ],
          "data": "0x",
          "blockHash": "0xfc2b358cd751be04a6d9bc95216f0ed1d0ac30fc2a3c9f6f76ebe1d4f65eea10",
          "blockNumber": "0x7746c5",
          "transactionHash": "0xc2e47c3d154e1b6d30b9ddc9e36f37c857b6c7fcc53923650500ecc75187072a",
          "transactionIndex": "0xae",
          "logIndex": "0xc9",
          "removed": false
        },
        {
          "address": "0xc0341325a034516c4146ef496a768de1850d09f5",
          "topics": [
            "0xddf252ad1be2c89b69c2b068fc378daa952ba7f163c4a11628f55a4df523b3ef",
            "0x0000000000000000000000000000000000000000000000000000000000000000",
            "0x0000000000000000000000000000000000000000000000000000000000000000"
          ],
          "data": "0x0000000000000000000000000000000000000000000000000000000000000000",
          "blockHash": "0xfc2b358cd751be04a6d9bc95216f0ed1d0ac30fc2a3c9f6f76ebe1d4f65eea10",
          "blockNumber": "0x7746c5",
          "transactionHash": "0xc2e47c3d154e1b6d30b9ddc9e36f37c857b6c7fcc53923650500ecc75187072a",
          "transactionIndex": "0xae",
          "logIndex": "0xca",
          "removed": false
        },
        {
          "address": "0xc0341325a034516c4146ef496a768de1850d09f5",
          "topics": [
            "0x7e644d79422f17c01e4894b5f4f588d331ebfa28653d42ae832dc59e38c9798f",
            "0x0000000000000000000000000000000000000000000000000000000000000000",
            "0x0000000000000000000000000000000000000000000000000000000000000000"
          ],
          "data": "0x",
          "blockHash": "0xfc2b358cd751be04a6d9bc95216f0ed1d0ac30fc2a3c9f6f76ebe1d4f65eea10",
          "blockNumber": "0x7746c5",
          "transactionHash": "0xc2e47c3d154e1b6d30b9ddc9e36f37c857b6c7fcc53923650500ecc75187072a",
          "transactionIndex": "0xae",
          "logIndex": "0xcb",
          "removed": false
        },
        {
          "address": "0xc0341325a034516c4146ef496a768de1850d09f5",
          "topics": [
            "0x7f26b83ff96e1f2b6a682f133852f6798a09c465da95921460cefb3847402498"
          ],
          "data": "0x0000000000000000000000000000000000000000000000000000000000000001",
          "blockHash": "0xfc2b358cd751be04a6d9bc95216f0ed1d0ac30fc2a3c9f6f76ebe1d4f65eea10",
          "blockNumber": "0x7746c5",
          "transactionHash": "0xc2e47c3d154e1b6d30b9ddc9e36f37c857b6c7fcc53923650500ecc75187072a",
          "transactionIndex": "0xae",
          "logIndex": "0xcc",
          "removed": false
        },
        {
          "address": "0xc0341325a034516c4146ef496a768de1850d09f5",
          "topics": [
            "0x2fe5be0146f74c5bce36c0b80911af6c7d86ff27e89d5cfa61fc681327954e5d",
            "0x000000000000000000000000c0341325a034516c4146ef496a768de1850d09f5",
            "0x00000000000000000000000097a1f968762b1d12c394e62aaa480998518a3744"
          ],
          "data": "0x00000000000000000000000000000000000000000000d3c21bcecceda10000000000000000000000000000000000000000000000000000000000000000000060000000000000000000000000000000000000000000000000000000000000008000000000000000000000000000000000000000000000000000000000000000000000000000000000000000000000000000000000000000000000000000000000",
          "blockHash": "0xfc2b358cd751be04a6d9bc95216f0ed1d0ac30fc2a3c9f6f76ebe1d4f65eea10",
          "blockNumber": "0x7746c5",
          "transactionHash": "0xc2e47c3d154e1b6d30b9ddc9e36f37c857b6c7fcc53923650500ecc75187072a",
          "transactionIndex": "0xae",
          "logIndex": "0xcd",
          "removed": false
        },
        {
          "address": "0xc0341325a034516c4146ef496a768de1850d09f5",
          "topics": [
            "0xddf252ad1be2c89b69c2b068fc378daa952ba7f163c4a11628f55a4df523b3ef",
            "0x0000000000000000000000000000000000000000000000000000000000000000",
            "0x00000000000000000000000097a1f968762b1d12c394e62aaa480998518a3744"
          ],
          "data": "0x00000000000000000000000000000000000000000000d3c21bcecceda1000000",
          "blockHash": "0xfc2b358cd751be04a6d9bc95216f0ed1d0ac30fc2a3c9f6f76ebe1d4f65eea10",
          "blockNumber": "0x7746c5",
          "transactionHash": "0xc2e47c3d154e1b6d30b9ddc9e36f37c857b6c7fcc53923650500ecc75187072a",
          "transactionIndex": "0xae",
          "logIndex": "0xce",
          "removed": false
        }
      ],
      "logsBloom": "0x0000000002000020000000000020000000000000000008000000000000000000104000000000000040000000008000000000000000000000000000000000100000000000000000000000000800000000000010000000000000000000000000000000410002040000000000000000080000001080002000000000001000000000000004000000000000000000000008000000000000008000000000000080000000000000a020000000000000000400000001000000000000200800000000000000000002000000800000000000040002000000000410000000000000000020000000010000000000000000000000010002000000100000000000000000000000",
      "type": "0x2",
      "transactionHash": "0xc2e47c3d154e1b6d30b9ddc9e36f37c857b6c7fcc53923650500ecc75187072a",
      "transactionIndex": "0xae",
      "blockHash": "0xfc2b358cd751be04a6d9bc95216f0ed1d0ac30fc2a3c9f6f76ebe1d4f65eea10",
      "blockNumber": "0x7746c5",
      "gasUsed": "0x40fc4",
      "effectiveGasPrice": "0x1088d7c5d5",
      "from": "0x97a1f968762b1d12c394e62aaa480998518a3744",
      "to": "0xc0341325a034516c4146ef496a768de1850d09f5",
      "contractAddress": null
    }
  ],
  "libraries": [],
  "pending": [],
  "returns": {},
  "timestamp": 1740915275,
  "chain": 11155111,
  "commit": "4195dd4"
}